:020000020000FC
:1000000000C040E050E060E0E0E2E4B9E0E0E7B9E1
:1000100000000E9455000E943E0040E050E060E079
:100020000E944700E22F0E942E0010E3410F510F63
:10003000610FE62F0E946200E52F0E946200E42F0C
:100040000E946200EAE00E946200E0E2E5B90E94DC
:100050007600E0E0E5B90E947600DFCFE43618F0E4
:100060006395E456FBCFEA3018F05395EA50FBCF86
:10007000E13018F04395E150FBCF0895E0E6E093BE
:100080007C00E0E8E0937A000E946A000895E0ECCA
:10009000E0937A000E946A00E0917A00E6FDFCCFCE
:1000A00010917800209179000895E6E0E093C20075
:1000B00010E0E7E61093C500E093C400E8E1E093A8
:1000C000C10008951091C00015FB0EF0FBCFE09326
:1000D000C600089513E627EC0000000000000000B1
:1000E00000002A95C9F71A95B1F708950E9481007A
:1000F0000E9481000E9481000E9481000E94810074
:1001000008950E946A000E946A000E946A000E948C
:100110006A000E946A000E946A000E946A000E94AF
:0C0120006A000E946A000E946A000895B4
:00000001FF
