:020000020000FC
:1000000000C040E050E060E000E204B900E007B961
:1000100000000E944D000E9462000E9469000E9440
:100020007000209178003091790040E050E060E06D
:1000300070E3022F0E947C000E943D0010E3410FFC
:10004000510F610F062F0E945A00052F0E945A007F
:10005000042F0E945A000EE20E945A00072F0E94AD
:100060005A000AE00E945A0000E205B90E94990075
:1000700000E005B90E949900D0CF043618F06395CE
:100080000456FBCF0A3018F053950A50FBCF0130CD
:1000900018F043950150FBCF089506E00093C2008D
:1000A00010E007E61093C5000093C40008E1009338
:1000B000C10008951091C00015FB0EF0FBCF009316
:1000C000C600089500E400937C0007E800937A00DE
:1000D000089500E410917A00102B10937A0008958F
:1000E00010917A0014FF0C94700000E110917A00D6
:1000F000102B10937A000895069510F000000895D3
:1001000075E3089513E627EC0000000000000000EE
:1001100000002A95C9F71A95B1F708950E94990031
:100120000E9499000E9499000E9499000E949900E3
:1001300008950E9482000E9482000E9482000E9414
:1001400082000E9482000E9482000E9482000E941F
:0C01500082000E9482000E94820008953C
:00000001FF
