:020000020000FC
:1000000000C040E050E060E000E204B900E007B961
:1000100000000E9455000E943E0040E050E060E079
:100020000E944700022F0E942E0010E3410F510F43
:10003000610F062F0E946200052F0E946200042FAC
:100040000E9462000AE00E94620000E205B90E947C
:10005000760000E005B90E947600DFCF043618F084
:1000600063950456FBCF0A3018F053950A50FBCF26
:10007000013018F043950150FBCF089500E600933E
:100080007C0000E800937A000E946A00089500EC6A
:1000900000937A000E946A0000917A0006FDFCCF6E
:1000A0001091780020917900089506E00093C20035
:1000B00010E007E61093C5000093C40008E1009328
:1000C000C10008951091C00015FB0EF0FBCF009306
:1000D000C600089513E627EC0000000000000000B1
:1000E00000002A95C9F71A95B1F708950E9481007A
:1000F0000E9481000E9481000E9481000E94810074
:1001000008950E946A000E946A000E946A000E948C
:100110006A000E946A000E946A000E946A000E94AF
:0C0120006A000E946A000E946A000895B4
:00000001FF
