:020000020000FC
:1000000000C040E050E060E000E204B900E007B961
:1000100000000E945B000E9470000E9477000E9416
:100020007E00209178003091790040E050E060E05F
:10003000032F0E94340010E3410F510F610F062F70
:100040000E946800052F0E946800042F0E9468002B
:100050000AE00E94680000E205B90E94A10000E0E9
:1000600005B90E94A100D9CF043618F06395045653
:10007000FBCF0A3018F053950A50FBCF013018F02F
:1000800043950150FBCF089500E600937C0000E803
:1000900000937A000E94A100089500EC00937A007A
:1000A0000E94A10000917A0006FDFCCF109178001B
:1000B00020917900089506E00093C20010E007E661
:1000C0001093C5000093C40008E10093C100089597
:1000D0001091C00015FB0EF0FBCF0093C6000895F1
:1000E00000E600937C0007E800937A00089500E49E
:1000F00010917A00102B10937A00089510917A00D5
:1001000014FF0C947E0000E110917A00102B1093E4
:100110007A00089513E627EC0000000000000000BC
:1001200000002A95C9F71A95B1F708950E94A10019
:100130000E94A1000E94A1000E94A1000E94A100B3
:1001400008950E948A000E948A000E948A000E94EC
:100150008A000E948A000E948A000E948A000E94EF
:0C0160008A000E948A000E948A00089514
:00000001FF
