:020000020000FC
:1000000000C040E050E060E000E204B900E007B961
:1000100000000E9456000E943E0040E050E060E078
:100020000E944700022F0E942E0010E3410F510F43
:10003000610F062F0E946300052F0E946300042FAA
:100040000E9463000AE00E94630000E205B90E947A
:100050008C0000E005B90E948C00DFCF043618F058
:1000600063950456FBCF0A3018F053950A50FBCF26
:10007000013018F043950150FBCF089500E600933E
:100080007C0000E800937A000E946B00089500EC69
:1000900000937A000E946B00089500917A0006FD9B
:1000A000FCCF1091780020917900089506E000932C
:1000B000C20010E027E61093C5000093C40008E1D9
:1000C0000093C10008951091C00015FB0EF0FBCF06
:1000D0000093C600089513E627EC0000000000001E
:1000E000000000002A95C9F71A95B1F708950E94FB
:1000F0006B000E946B000E946B000E946B000E94CC
:100100006B000E946B000E946B000E946B000E94BB
:100110006B000E946B0008950E9477000E94770098
:0E0120000E9477000E9477000E9477000895E9
:00000001FF
