:020000020000FC
:1000000041E052E064E078E080E190E2A0E4B0E812
:10001000CFEFD0E0CAB9C4B900C00E9449004BB9C3
:100020000E9449005BB90E9449006BB90E944900D7
:100030007BB90E9449008BB90E9449009BB90E947C
:100040004900ABB90E944900BBB90E944900DBB925
:1000500045B90E94490055B90E942F00DECF0E9489
:10006000490045B90E944900D5B9BBB90E94490071
:10007000ABB90E9449009BB90E9449008BB90E940C
:1000800049007BB90E9449006BB90E9449005BB9E5
:10009000089526E003E617EC0000000000000000D1
:1000A00000001A95C9F70A95B1F72A9599F70895AE
:00000001FF
