:020000020000FC
:1000000000C020E34AE02AB904B900000E9422009F
:100010000E94370059B14F9B02C010C0F9CFC0F306
:10002000022F0E942F009AE0092F0E942F004A956C
:10003000403039F30E9420000894EACF8894E8CF3A
:100040002395089506E00093C20010E007E61093A0
:10005000C5000093C40008E10093C1000895109109
:10006000C00015FB0EF0FBCF0093C600089563E1BE
:1000700073E687EC000000000000000000008A9595
:0C008000C9F77A95B1F76A9599F70895D1
:00000001FF
