:020000020000FC
:1000000000C0A0E0A5B940E050E060E000E204B923
:1000100000E007B900000E94AE000E94CA000E94E2
:10002000D1000E94D800209178003091790040E002
:1000300050E060E070E3022F0E949E0010E3410F49
:10004000510F610F062F0E94BB00052F0E94BB00BD
:10005000042F0E94BB000CE70E94BB000E94C3005B
:100060000E94D1000E94D800209178003091790040
:1000700040E050E060E070E3022F0E94E4000E9444
:100080009E0010E3410F510F610F062F0E94BB002D
:10009000052F0E94BB00042F0E94BB000EE20E94AD
:1000A000BB00072F0E94BB000CE70E94BB0040E092
:1000B00050E060E070E3032F0E94E4000E949E0085
:1000C00010E3410F510F610F062F0E94BB00052F57
:1000D0000E94BB00042F0E94BB000EE20E94BB00E6
:1000E000072F0E94BB000CE70E94BB000E94EA00A1
:1000F00040E050E060E070E3082F0E949E0010E3B3
:10010000410F042F0E94BB000CE70E94BB000E941D
:10011000F00040E050E060E070E3092F0E949E0094
:1001200010E3410F042F0E94BB000CE70E94BB00AC
:100130000AE00E94BB000E940D016FCF043618F048
:1001400063950456FBCF0A3018F053950A50FBCF45
:10015000013018F043950150FBCF089506E000935D
:10016000C20010E008E01093C5000093C40008E14D
:100170000093C10008951091C00015FB0EF0FBCF55
:100180000093C600089500E400937C0007E8009304
:100190007A00089501E400937C0007E800937A0058
:1001A000089500E410917A00102B10937A000895BE
:1001B00010917A0014FF0C94D80000E110917A009D
:1001C000102B10937A000895069510F00000089502
:1001D00075E3089580E0189981E00000000008951B
:1001E00090E01D9991E000000000089513E627ECCF
:1001F000000000000000000000002A95C9F71A95D1
:10020000B1F708950E940D010E940D010E940D0199
:100210000E940D010E940D0108950E94F6000E94A7
:10022000F6000E94F6000E94F6000E94F6000E946E
:10023000F6000E94F6000E94F6000E94F6000E945E
:04024000F600089527
:00000001FF
