:020000020000FC
:1000000000C0A0E0A5B940E050E060E000E204B923
:1000100000E007B900000E94CE000E94EA000E94A2
:10002000F1000E94F800209178003091790040E0C2
:1000300050E060E070E3022F0E9404010E94BE00C5
:1000400010E3410F510F610F062F0E94DB00052FB7
:100050000E94DB00042F0E94DB000EE20E94DB0006
:10006000072F0E94DB000CE20E94DB0040E050E022
:1000700060E070E3032F0E9404010E94BE0010E3C1
:10008000410F510F610F062F0E94DB00052F0E94C8
:10009000DB00042F0E94DB000EE20E94DB00072F32
:1000A0000E94DB000CE20E94DB000E94E3000E9441
:1000B000F1000E94F800209178003091790040E032
:1000C00050E060E070E3022F0E94BE0010E3410F99
:1000D000510F610F062F0E94DB00052F0E94DB00ED
:1000E000042F0E94DB000CE20E94DB0040E050E0A5
:1000F00060E070E3032F0E94BE0010E3410F510F38
:10010000610F062F0E94DB00052F0E94DB00042FE9
:100110000E94DB000CE20E94DB0000E00E940A016A
:1001200040E050E060E070E3082F0E94BE0010E362
:10013000410F042F0E94DB000CE20E94DB000E94B2
:10014000100140E050E060E070E3092F0E94BE0023
:1001500010E3410F042F0E94DB000CE20E94DB0041
:100160000AE00E94DB000E94EA000E942D010E942A
:100170002D010E942D010E942D014FCF043618F051
:1001800063950456FBCF0A3018F053950A50FBCF05
:10019000013018F043950150FBCF089506E000931D
:1001A000C20010E008E01093C5000093C40008E10D
:1001B0000093C10008951091C00015FB0EF0FBCF15
:1001C0000093C600089500E400937C0007E80093C4
:1001D0007A00089501E400937C0007E800937A0018
:1001E000089500E410917A00102B10937A0008957E
:1001F00010917A0014FF0C94F80000E110917A003D
:10020000102B10937A000895069510F000000895C1
:1002100075E3089580E0199981E0000000000895D9
:1002200090E01D9991E000000000089513E627EC8E
:10023000000000000000000000002A95C9F71A9590
:10024000B1F708950E942D010E942D010E942D01F9
:100250000E942D010E942D0108950E9416010E9406
:1002600016010E9416010E9416010E9416010E94AA
:1002700016010E9416010E9416010E9416010E949A
:0402800016010895C6
:00000001FF
