:020000020000FC
:1000000000C0A0E0A5B940E050E060E000E204B923
:1000100000E007B900000E94CD000E94E9000E94A4
:10002000F0000E94F700209178003091790040E0C4
:1000300050E060E070E3022F0E9403010E94BD00C7
:1000400010E3410F510F610F062F0E94DA00052FB8
:100050000E94DA00042F0E94DA000EE20E94DA0009
:10006000072F0E94DA000CE20E94DA0040E050E024
:1000700060E070E3032F0E9403010E94BD0010E3C3
:10008000410F510F610F062F0E94DA00052F0E94C9
:10009000DA00042F0E94DA000EE20E94DA00072F35
:1000A0000E94DA000CE20E94DA000E94E2000E9444
:1000B000F0000E94F700209178003091790040E034
:1000C00050E060E070E3022F0E94BD0010E3410F9A
:1000D000510F610F062F0E94DA00052F0E94DA00EF
:1000E000042F0E94DA000CE20E94DA0040E050E0A7
:1000F00060E070E3032F0E94BD0010E3410F510F39
:10010000610F062F0E94DA00052F0E94DA00042FEB
:100110000E94DA000CE20E94DA000E94090140E02D
:1001200050E060E070E3082F0E94BD0010E3410F33
:10013000042F0E94DA000CE20E94DA000E940F01F4
:1001400040E050E060E070E3092F0E94BD0010E342
:10015000410F042F0E94DA000CE20E94DA000AE04C
:100160000E94DA000E94E9000E942C010E942C01EA
:100170000E942C010E942C0150CF043618F0639588
:100180000456FBCF0A3018F053950A50FBCF0130CC
:1001900018F043950150FBCF089506E00093C2008C
:1001A00010E008E01093C5000093C40008E100933C
:1001B000C10008951091C00015FB0EF0FBCF009315
:1001C000C600089500E400937C0007E800937A00DD
:1001D000089501E400937C0007E800937A000895F5
:1001E00000E410917A00102B10937A00089510917A
:1001F0007A0014FF0C94F70000E110917A00102BA4
:1002000010937A000895069510F00000089575E3A4
:10021000089580E0189981E000000000089590E0C2
:100220001D9991E000000000089513E627EC0000FE
:1002300000000000000000002A95C9F71A95B1F7E8
:1002400008950E942C010E942C010E942C010E9402
:100250002C010E942C0108950E9415010E94150195
:100260000E9415010E9415010E9415010E941501AE
:100270000E9415010E9415010E9415010E9415019E
:020280000895DF
:00000001FF
